S00E000053414D4537302E7372656389
S214400000F0244020DD044000D9044000D9044000DC
S214400010D9044000D9044000D90440000000000044
S214400020000000000000000000000000D90440006E
S214400030D904400000000000D9044000D904400024
S214400040D9044000D9044000D9044000D9044000F7
S214400050D9044000D9044000D9044000D9044000E7
S214400060D904400000000000010340001503400092
S21440007029034000D9044000D9044000D904400078
S2144000803D03400051034000D9044000D9044000DD
S214400090D9044000D9044000D9044000D9044000A7
S2144000A0D9044000D9044000D9044000D904400097
S2144000B0D9044000D9044000D9044000D904400087
S2144000C0D9044000D9044000D9044000D904400077
S2144000D000000000D904400000000000D9044000A1
S2144000E0D9044000D9044000D9044000D904400057
S2144000F0D9044000D9044000D9044000D904400047
S214400100D9044000D9044000D9044000D904400036
S214400110D90440000000000000000000000000007D
S214400120D9044000D9044000D9044000D904400016
S214400130D904400000000000D9044000D904400023
S21440014010B5054C237833B9044B13B10448AFF3CC
S21440015000800123237010BD3C04402000000000B6
S214400160501C40000C4B43B10C480D4910B5AFF342
S21440017000800C48036823B910BD0A48036833B9A9
S2144001807047094B002BF7D0BDE810401847064B88
S214400190002BF5D0184700BF00000000501C400060
S2144001A040044020501C40000000000010B510489D
S2144001B0104B98473E2100200F4B98470F4CA047C6
S2144001C00028FCD00E4B98470E4A0F4B9A620F4CB5
S2144001D0A0470028FCD002200D4B984700200D4B2E
S2144001E098470D4B98470248024B984710BD00BFB2
S2144001F000A3E111B1064000010440005504400050
S21440020065044000013F182000060E40750440007B
S214400210650340009D034000A50540000AB90166FD
S214400220704741667047016370474163704721F0ED
S2144002300061B1F1405F05D1836B134214BF0120CA
S21440024000207047C36BF8E7416412F0010F0DD1F0
S214400250016612F00A0F0BD0016212F0020F09D1AC
S21440026012F0080F08D0C0F8841005E04166F0E7A9
S2144002704162F2E7C0F8801041610160704710B4F7
S214400280019C41644CB901664BB101654AB9416372
S214400290016101605DF8044B70474166F4E74165D3
S2144002A0F4E70163F4E7C06C7047806C7047000069
S2144002B02DE9F041044688460E4B984705462046B1
S2144002C00D4B9847054013D00C4C04F1600603E0F4
S2144002D0B4420DD010345DB120684045F8D1616815
S2144002E02942F5D0E3689847636825EA0305EFE7B7
S2144002F0BDE8F081A7024000AB0240005804402011
S21440030008B50A210148024B984708BD000E0E402A
S214400310B102400008B50B210148024B984708BD82
S21440032000100E40B102400008B50C210148024BB7
S214400330984708BD00120E40B102400008B5102193
S2144003400148024B984708BD00140E40B1024000D9
S21440035008B511210148024B984708BD00160E40CB
S214400360B1024000032811D0042812D002280CBF46
S2144003704FF480710021084A136B23F440730B43FB
S2144003801363936E13F0080FFBD070474FF4407121
S214400390F1E74FF40071EEE700060E40174A136B84
S2144003A023F0700318431063936E13F0080F0AD1BE
S2144003B04FF4805311498A6E12F0080F03D1013B67
S2144003C0F9D1012070470D4A136B23F0030343F025
S2144003D002031363936E13F0080F0AD14FF4805351
S2144003E006498A6E12F0080F05D1013BF9D101206B
S2144003F07047002070470020704700BF00060E4040
S214400400A0B90E48036A090289B20D4A1A400D4B3C
S2144004101343194301620246936E13F0010FFBD05B
S214400420064A116A084B0B431362704703490B6A2E
S214400430064A1A40064B13430B62704700060E40AE
S214400440FCFFC8FF0100370000003701FCFFC8FE74
S21440045002003701024B986E00F48030704700BFB0
S21440046000060E404FF00052014B9A62704700BFA4
S21440047000060E40024B986E00F00200704700BF28
S21440048000060E403F281ED81F280CD8114B9A69EC
S21440049001238340934318D0012303FA00F00D4B09
S2144004A018610020704720380A4BD3F808210123F2
S2144004B0834093430BD0012303FA00F0054BC3F867
S2144004C00001002070470120704700207047002040
S2144004D0704700BF00060E40FEE7000000B583B040
S2144004E0254B264A9A4210D0254B234A9A420CD294
S2144004F0013B9B1A23F00303043313441F4951F86E
S214400500040B42F8040B9A42F9D11E4B1E4A9A42FB
S2144005100AD2013B9B1A23F0030304331344002101
S21440052042F8041B9342FBD1184A194B23F07F0331
S2144005309360EFF31083B3FA83F35B09019372B6CB
S214400540BFF35F8F0022134B1A700199124A13684B
S21440055043F470031360BFF34F8FBFF36F8F29B11F
S21440056001220C4B1A70BFF35F8F62B60B4B984755
S2144005700B4B9847FEE700BF00004020501C400051
S2144005803C044020EC0440203C04402000ED00E0C9
S214400590000040000A00402088ED00E04D15400075
S2144005A05D0940003B4B1B6B03F00303012B1DD042
S2144005B083B1022B36D0374B1B6B03F07003702B86
S2144005C05FD0344B1A6B3449C2F302120B68D340E7
S2144005D00B607047314B5B6913F0800F14BF4FF4CC
S2144005E000424FF4FA422C4B1A60E4E7294B1B6A50
S2144005F013F0807F03D02A4A274B1A60DBE7294A4C
S214400600254B1A60234B1B6A03F07003102B05D052
S214400610202BD0D1224A204B1A60CCE7224A1E4BD0
S2144006201A60C8E71B4B1B6A13F0807F16D01C4A23
S214400630194B1A60174B1B6B03F00303022BBAD1FE
S214400640144A916A926A1448C1F30A41036801FB4E
S2144006500333D2B2B3FBF2F30360ACE7114A0E4B5E
S2144006601A600C4B1B6A03F07003102B05D0202B2E
S214400670E0D10B4A084B1A60DCE70B4A064B1A607F
S214400680D8E7054A13680949A1FB03135B081360C2
S214400690704700BF00060E400C00402010180E4069
S2144006A0001BB70000093D0000127A00ABAAAAAAB8
S2144006B0124B984211D9124B984213D9114B98427B
S2144006C014D9114B984215D9104B984294BF4FF00D
S2144006D004220F4A0F4B1A6070474FF080620D4B52
S2144006E01A6070470C4A0B4B1A6070470B4A094B0E
S2144006F01A6070470A4A074B1A607047FF2C310150
S214400700FF596202FF869303FFB3C404FFE0F5057A
S21440071000050004000C0E40000100040002000426
S214400720000300042DE9F04704460F464FF480715D
S2144007302448254B9847254B93FBF4F807FB04F1D8
S214400740234F87FB0137C917C1EBA717002F32DDB0
S214400750204CA8FB04014246D31704FB03111E4A53
S21440076000231E4C0025001969411D4CA0478246B7
S2144007700024144EDFF870901A4D0BE03320A84743
S2144007804FF400313046104B98473320A847013489
S214400790A74210D04FF400313046C847B8F1000F9A
S2144007A0ECD05046A8474FF400313046064B9847A9
S2144007B05046A847EBE74FF4807102480A4B9847EB
S2144007C0BDE8F08700120E402B02400020A1070033
S2144007D0D34D621000A3E111E0835A00DF835A0034
S2144007E03D1240000100402027024000000000006B
S2144007F02DE9F84FB2F1000B4CDD0F1F061F002508
S214400800DFF8B8A011E02146254B98472548264BEF
S2144008109847BDE8F88F3320234B98472146002061
S2144008201F4B98470135AB4534D057F8043F4FF43B
S2144008307A7494FBF3F4214656F8040F184B984705
S21440084010224FF020511948194B98470028DAD00B
S2144008502046184B984710A3D3E90023DFF8608062
S214400860C047154B98470028D5D0C317A0FB0A8928
S2144008700AFB039941F22C72002341F22B700021AF
S21440088010EB080041EB0901DFF83880C047064B03
S2144008909847C3E7BDE8F88FCDCCCCCCCCCCF43F62
S2144008A0250740006BAF030301004020000E0E40BA
S2144008B02F024000FD0C4000ED11400000A3E11166
S2144008C0C90D40003D1240002DE9F04182B01C4B5E
S2144008D098474FF400421B4B5A600C201A4EB047C4
S2144008E01A4D00240094234622464FF48071284631
S2144008F0174FB8470C20B0470094234622464FF483
S21440090000312846B8470C20B04722464FF0804179
S2144009100C20DFF84480C04701224FF08041284633
S2144009200C4FB8470A20B047224610210A20C0473D
S21440093001224FF080412846B84702B0BDE8F0811A
S214400940AD01400050180E408504400000120E4095
S2144009507F0240001D024000490240002DE9F0435E
S214400960ADF2344D314B9847314D4FF49C7632467C
S2144009702946BEA82F4CA0473246A91970A8A047C2
S214400980E026324605F51C710DEB0600A0473246C0
S21440099005F554716846A0474FF00109264E274C8E
S2144009A0DFF8B080264F3CE03846264B984710226A
S2144009B029463046A0470028F6D0B9F1010F12D09C
S2144009C0B9F1020F15D04FF0804229464046A04765
S2144009D050B3102229463046A0470028F3D11A4883
S2144009E0184B9847E3E74E2270A9BEA8174B984786
S2144009F0E9E73822694638A8144B9847E3E7284683
S214400A00104B98474FF080424FF020514046A04749
S214400A100028F4D0B9F1020F0CBF4FF001094FF097
S214400A2002094FF02055D4E7094DEBE7C9084000CE
S214400A30F01740009D154000000E0E402F0240006B
S214400A409E4209000100402046930B00F1074000FB
S214400A508B26170000120E4081F0004102E000BFD6
S214400A6083F0004330B54FEA41044FEA430594EA29
S214400A70050F08BF90EA020F1FBF54EA000C55EA64
S214400A80020C7FEA645C7FEA655C00F0E2804FEA35
S214400A905454D4EB5555B8BF6D420CDD2C4480EA17
S214400AA0020281EA030382EA000083EA010180EA47
S214400AB0020281EA0303362D88BF30BD11F0004F95
S214400AC04FEA01314FF4801C4CEA113102D04042CB
S214400AD061EB410113F0004F4FEA03334CEA133306
S214400AE002D0524263EB430394EA050F00F0A7801E
S214400AF0A4F10104D5F1200E0DDB02FA0EFC22FA19
S214400B0005F2801841F1000103FA0EF2801843FA0C
S214400B1005F359410EE0A5F120050EF1200E012AFD
S214400B2003FA0EFC28BF4CF0020C43FA05F3C0183B
S214400B3051EBE37101F0004507D54FF0000EDCF1B4
S214400B40000C7EEB00006EEB0101B1F5801F1BD35D
S214400B50B1F5001F0CD349085FEA30004FEA3C0C61
S214400B6004F101044FEA445212F5800F80F09A8057
S214400B70BCF1004F08BF5FEA500C50F1000041EB5B
S214400B80045141EA050130BD5FEA4C0C404141EB5F
S214400B90010111F4801FA4F10104E9D191F0000F86
S214400BA004BF01460020B1FA81F308BF2033A3F109
S214400BB00B03B3F120020CDA0C3208DD02F1140C00
S214400BC0C2F10C0201FA0CF021FA02F10CE002F13B
S214400BD01402D8BFC2F1200C01FA02F120FA0CFC34
S214400BE0DCBF41EA0C019040E41AA2BF01EB04517D
S214400BF0294330BD6FEA04041F3C1CDA0C340EDC7B
S214400C0004F11404C4F1200220FA04F001FA02F3BD
S214400C1040EA030021FA04F345EA030130BDC4F17B
S214400C200C04C4F1200220FA02F001FA04F340EA70
S214400C300300294630BD21FA04F0294630BD94F021
S214400C40000F83F4801306BF81F480110134013D08
S214400C504EE77FEA645C18BF7FEA655C29D094EA79
S214400C60050F08BF90EA020F05D054EA000C04BFF7
S214400C701946104630BD91EA030F1EBF00210020E2
S214400C8030BD5FEA545C05D14000494128BF41F081
S214400C90004130BD14F580043CBF01F5801130BDE5
S214400CA001F0004545F0FE4141F470014FF0000070
S214400CB030BD7FEA645C1ABF194610467FEA655C21
S214400CC01CBF0B46024650EA013406BF52EA0335C3
S214400CD091EA030F41F4002130BD00BF90F0000FB1
S214400CE004BF0021704730B54FF4806404F13204ED
S214400CF04FF000054FF0000150E700BF90F0000FA6
S214400D0004BF0021704730B54FF4806404F13204CC
S214400D1010F0004548BF40424FF000013EE700BF9C
S214400D2042004FEAE2014FEA31014FEA02701FBF2C
S214400D3012F07F4393F07F4F81F06051704792F0FE
S214400D40000F14BF93F07F4F704730B54FF4607478
S214400D5001F0004521F0004120E700BF50EA0102C3
S214400D6008BF704730B54FF000050AE050EA010270
S214400D7008BF704730B511F0004502D5404261EBE0
S214400D8041014FF4806404F132045FEA915C3FF421
S214400D90DCAE4FF003025FEADC0C18BF03325FEABA
S214400DA0DC0C18BF033202EBDC02C2F1200300FA6F
S214400DB003FC20FA02F001FA03FE40EA0E0021FA94
S214400DC002F11444C1E600BF70B54FF0FF0C4CF47E
S214400DD0E06C1CEA11541DBF1CEA135594EA0C0F34
S214400DE095EA0C0F00F0DEF82C4481EA030621EA6F
S214400DF04C5123EA4C5350EA013518BF52EA0335AA
S214400E0041F4801143F4801338D0A0FB02CE4FF05B
S214400E100005E1FB02E506F00042E0FB03E54FF08B
S214400E200006E1FB03569CF0000F18BF4EF0010E83
S214400E30A4F1FF04B6F5007F64F5407404D25FEA7F
S214400E404E0E6D4146EB060642EAC62141EA555132
S214400E504FEAC52040EA5E504FEACE2EB4F1FD0C74
S214400E6088BFBCF5E06F1ED8BEF1004F08BF5FEAF2
S214400E70500E50F1000041EB045170BD06F00046A4
S214400E8046EA010140EA020081EA0301B4EB5C0451
S214400E90C2BFD4EB0C0541EA045170BD41F4801149
S214400EA04FF0000E013C00F3AB8014F1360FDEBF6E
S214400EB0002001F0004170BDC4F10004203C35DA4A
S214400EC00C341BDC04F11404C4F1200500FA05F3CD
S214400ED020FA04F001FA05F240EA020001F000426E
S214400EE021F0004110EBD37021FA04F642EB0601E4
S214400EF05EEA430E08BF20EAD37070BDC4F10C040E
S214400F00C4F1200500FA04F320FA05F001FA04F2D1
S214400F1040EA020001F0004110EBD37041F10001BD
S214400F205EEA430E08BF20EAD37070BDC4F12005C8
S214400F3000FA05F24EEA020E20FA04F301FA05F230
S214400F4043EA020321FA04F001F0004121FA04F2D8
S214400F5020EA020000EBD3705EEA430E08BF20EAA8
S214400F60D37070BD94F0000F0FD101F000464000E2
S214400F7041EB010111F4801F08BF013CF7D041EA64
S214400F80060195F0000F18BF704703F00046520068
S214400F9043EB030313F4801F08BF013DF7D043EA39
S214400FA00603704794EA0C0F0CEA135518BF95EAEF
S214400FB00C0F0CD050EA410618BF52EA4306D1D176
S214400FC081EA030101F000414FF0000070BD50EA95
S214400FD0410606BF1046194652EA430619D094EA1F
S214400FE00C0F02D150EA013613D195EA0C0F05D109
S214400FF052EA03361CBF104619460AD181EA03015D
S21440100001F0004141F0FE4141F470014FF0000014
S21440101070BD41F0FE4141F4780170BD70B54FF0AF
S214401020FF0C4CF4E06C1CEA11541DBF1CEA13552F
S21440103094EA0C0F95EA0C0F00F0A7F8A4EB050411
S21440104081EA030E52EA03354FEA013100F0888008
S2144010504FEA03334FF0805545EA131343EA1263D1
S2144010604FEA022245EA111545EA10654FEA002686
S2144010700EF000419D4208BF964244F1FD0404F53F
S214401080407402D25B084FEA3202B61A65EB03059B
S2144010905B084FEA32024FF480104FF4002CB6EB58
S2144010A0020E75EB030E22BFB61A754640EA0C00D8
S2144010B05B084FEA3202B6EB020E75EB030E22BF18
S2144010C0B61A754640EA5C005B084FEA3202B6EB59
S2144010D0020E75EB030E22BFB61A754640EA9C0018
S2144010E05B084FEA3202B6EB020E75EB030E22BFE8
S2144010F0B61A754640EADC0055EA060E18D04FEAA6
S214401100051545EA16754FEA06164FEAC30343EA45
S21440111052734FEAC2025FEA1C1CC0D111F4801F12
S2144011200BD141EA00014FF000004FF0004CB6E70B
S21440113011F4801F04BF01430020B4F1FD0C88BFAA
S214401140BCF5E06F3FF6AFAEB5EB030C04BFB6EBB5
S214401150020C5FEA500C50F1000041EB045170BDA8
S2144011600EF0004E4EEA113114EB5C04C2BFD4EBD5
S2144011700C0541EA045170BD41F480114FF0000E59
S214401180013C90E645EA060E8DE60CEA135594EAD5
S2144011900C0F08BF95EA0C0F3FF43BAF94EA0C0FD8
S2144011A00AD150EA01347FF434AF95EA0C0F7FF44D
S2144011B025AF104619462CE795EA0C0F06D152EAA1
S2144011C003353FF4FDAE1046194622E750EA410685
S2144011D018BF52EA43067FF4C5AE50EA41047FF496
S2144011E00DAF52EA43057FF4EBAE12E74FEA4102F9
S2144011F012F5001215D211D56FF47873B3EB625224
S21440120012D94FEAC12343F0004343EA505311F04A
S214401210004F23FA02F018BF404270474FF00000DC
S214401220704750EA013005D111F0004008BF6FF01A
S214401230004070474FF00000704700BF53B94AB9AE
S214401240002908BF00281CBF4FF0FF314FF0FF3089
S21440125000F07AB9ADF1080C6DE904CE00F006F85E
S214401260DDF804E0DDE9022304B070472DE9F047DD
S2144012708C460D460446089E002B51D18A4217469E
S2144012806DD9B2FA82FEBEF1000F0BD0CEF1200C23
S21440129001FA0EF520FA0CFC02FA0EF74CEA050CA1
S2144012A000FA0EF44FEA174A250CBCFBFAF81FFA70
S2144012B087F90AFB18CC45EA0C4508FB09F3AB4214
S2144012C00AD9ED1908F1FF3280F02381AB4240F293
S2144012D02081A8F102083D44ED1AA4B2B5FBFAF00D
S2144012E00AFB105544EA054400FB09F9A14509D913
S2144012F0E41900F1FF3380F00A81A14540F20781EE
S21440130002383C44A4EB090440EA08400021002E81
S21440131061D024FA0EF4002334607360BDE8F08791
S2144013208B4207D9002E54D0002186E8210008467B
S214401330BDE8F087B3FA83F1002940F08E80AB42D7
S21440134002D3824200F2FA80841A65EB030501203C
S214401350AC46002E3FD086E81010BDE8F08712B9A4
S2144013600127B7FBF2F7B7FA87FEBEF1000F34D17C
S214401370EB1B3A0C1FFA87FC0121B3FBF2F8250C55
S21440138002FB183345EA03450CFB08F3AB4207D98A
S214401390ED1908F1FF3002D2AB4200F2D180804610
S2144013A0ED1AA3B2B5FBF2F002FB105543EA054432
S2144013B00CFB00FCA44507D9E41900F1FF3302D228
S2144013C0A44500F2B8801846A4EB0C0440EA084056
S2144013D09DE731463046BDE8F087CEF1200405FA59
S2144013E00EF307FA0EF720FA04F83A0C25FA04F43E
S2144013F048EA0308B4FBF2F14FEA184502FB1144F1
S2144014001FFA87FC45EA044501FB0CF3AB4200FAA1
S2144014100EF409D9ED1901F1FF3080F08A80AB4215
S21440142040F2878002393D44EB1A1FFA88F5B3FB39
S214401430F2F002FB103345EA034500FB0CF3AB42E7
S21440144007D9ED1900F1FF386FD2AB426DD902389B
S2144014503D44EB1A40EA01418FE7C1F1200722FAEA
S21440146007F88B4005FA01F448EA030320FA07FE22
S2144014704FEA134CFD404EEA040EB5FBFCF94FEA2A
S2144014801E440CFB19551FFA83F844EA054509FB30
S21440149008F4AC4202FA01F200FA01FA08D9ED1853
S2144014A009F1FF3043D2AC4241D9A9F102091D44AB
S2144014B02D1B1FFA8EFEB5FBFCF00CFB10554EEABA
S2144014C0054400FB08F8A04507D9E41800F1FF35AD
S2144014D029D2A04527D902381C4440EA0940A4EB4B
S2144014E00804A0FB02894C45C6464D4615D312D08B
S2144014F056B1BAEB0E0364EB050404FA07F7CB408B
S2144015001F43CC40376074600021BDE8F087184622
S214401510F8E69046E0E6C245EAD2B8EB020E69EB42
S21440152003050138E4E72846D7E7404691E7814679
S214401530BEE7014678E702383C4445E7084608E7F8
S214401540A8F102083D442BE7704700BF70B50F4E28
S2144015500F4D761BB61018BF002405D0013455F841
S214401560043B9847A642F9D10A4E0B4D761B00F035
S21440157059FBB61018BF002406D0013455F8043B7A
S2144015809847A642F9D170BD70BD00BF301C4000E0
S214401590301C4000381C4000301C4000844641EA65
S2144015A0000313F003036DD1403A41D351F8043B96
S2144015B040F8043B51F8043B40F8043B51F8043BE8
S2144015C040F8043B51F8043B40F8043B51F8043BD8
S2144015D040F8043B51F8043B40F8043B51F8043BC8
S2144015E040F8043B51F8043B40F8043B51F8043BB8
S2144015F040F8043B51F8043B40F8043B51F8043BA8
S21440160040F8043B51F8043B40F8043B51F8043B97
S21440161040F8043B51F8043B40F8043B51F8043B87
S21440162040F8043B51F8043B40F8043B403ABDD2F6
S214401630303211D351F8043B40F8043B51F8043B98
S21440164040F8043B51F8043B40F8043B51F8043B57
S21440165040F8043B103AEDD20C3205D351F8043B27
S21440166040F8043B043AF9D2043208D0D2071CBFF3
S21440167011F8013B00F8013B01D30B88038060461C
S214401680704700BF082A13D38B078DD010F0030392
S2144016908AD0C3F10403D21ADB071CBF11F8013B02
S2144016A000F8013B80D331F8023B20F8023B7BE751
S2144016B0043AD9D3013A11F8013B00F8013BF9D27C
S2144016C00B7803704B7843708B7883706046704716
S2144016D0024B13B1024800F005B870470000000006
S2144016E0F1164000002301461A46184600F01EB880
S2144016F038B50A4C0A4D641BA4100AD004F1804346
S214401700013B05EB8305013C55F804399847002C0E
S214401710F9D1BDE8384000F08FBA00BF481C400001
S214401720441C4000704700BF704700BF2DE9F84397
S2144017302C4D0646286898460F469146FFF7F2FF1E
S214401740294B1C68D4F84831002B3ED05A681F2AD3
S2144017501CDC02F1010E76B103EB82010124C1F8D4
S2144017608890D3F8880194402043022EC3F888011D
S214401770C1F8088123D00232C3F804E0286843F851
S2144017802270FFF7D1FF0020BDE8F883174B0BB35C
S2144017904FF4C870AFF300800346D8B1D4F8482160
S2144017A00260002141600A46C4F848014FF0010E2D
S2144017B0C0F88811C0F88C11002EDCD0CCE7D3F8E6
S2144017C08C110C43C3F88C41D5E704F5A673C4F8D6
S2144017D04831BBE72868FFF7A7FF4FF0FF30BDE86A
S2144017E0F88300BF38044020201C40000000000062
S2144017F04D0A00004D0A0000000000004D0A00009F
S214401800000000002D0800004D0A00000000000007
S214401810400C000000000000000000000000000037
S214401820200600000000000000000000000000004D
S2144018302D08000000000000000000002006000008
S2144018400000000000000000270500000000000027
S21440185000000000E006000000000000B80700009E
S2144018600000000049070000E006000000000000FD
S214401870200600004D0A0000400C0000C00D00008D
S21440188000000000EA0A0000400C000000000000D3
S2144018904D0A0000000000002D0800002D09000041
S2144018A0B807000000000000000000002D080000FF
S2144018B000000000000000002006000000000000BD
S2144018C000000000270500000000000000000000A7
S2144018D0E006000000000000B8070000000000001E
S2144018E049070000E0060000000000002006000057
S2144018F04D0A0000400C0000C00D00000000000033
S214401900EA0A0000400C0000000000004D0A0000FB
S214401910000000002D0800002D090000B807000058
S21440192000000000000000000C0000000C0000005A
S2144019300C0000000C0000000C0000000C00000032
S2144019400C0000000C0000000C0000000C00000022
S2144019500C0000000C0000000C0000000C00000012
S2144019600C0000000C0000000C0000000C00000002
S2144019700C0000000C0000000C0000000C000000F2
S2144019800C0000000C0000000C0000000C000000E2
S2144019900C0000000C0000000C0000000C000000D2
S2144019A00C0000000C0000000900000009000000C8
S2144019B0090000000C0000000C0000000C000000B5
S2144019C00C0000000C0000000C0000000C000000A2
S2144019D00C0000000C0000000C0000000C00000092
S2144019E00C0000000C0000000C0000000C00000082
S2144019F00C0000000C0000000C0000000C00000072
S214401A000C0000000C0000000C0000000C00000061
S214401A100C0000000C0000000C0000000C00000051
S214401A200C0000000900000009000000090000004A
S214401A300C0000000C0000000C0000000C00000031
S214401A400C0000000C0000000C0000000C00000021
S214401A500C0000000C0000000C0000000C00000011
S214401A60060100000B020000DC000000B801000088
S214401A70E9000000D2010000000000000000000065
S214401A80060100000B020000DC000000B801000068
S214401A90E9000000D2010000000000000000000045
S214401AA0AF0000005D01000093000000260100002A
S214401AB09C0000003701000000000000000000000D
S214401AC0AF0000005D01000093000000260100000A
S214401AD09C000000370100000000000000000000ED
S214401AE03701000015010000260100001501000026
S214401AF03701000037010000D0000000C40000009D
S214401B001501000006010000720100005D010000A2
S214401B10A5000000D2010000B80100009F010000AF
S214401B2037010000F7000000E9000000DC0000007C
S214401B30D000000000000000000000000000000090
S214401B400C0000000C0000000C0000000C00000020
S214401B500C0000000C00000006000000030000001F
S214401B600C0000000C0000000C0000000C00000000
S214401B700C0000000C0000000600000003000000FF
S214401B800C0000000C0000000C0000000C000000E0
S214401B900C0000000C0000000600000003000000DF
S214401BA00C0000000C0000000C0000000C000000C0
S214401BB00C0000000C0000000600000006000000BC
S214401BC01200000012000000120000000600000094
S214401BD006000000060000000600000006000000A8
S214401BE00600000012000000120000001200000074
S214401BF01200000012000000120000000A00000060
S214401C000A0000000A0000000A0000000A00000067
S214401C100A0000000300000003000000030000006C
S214401C2010004020F8B500BFF8BC08BC9E46704780
S214401C30D116400065014000F8B500BFF8BC08BCAE
S20C401C409E467047410140003A
S20C401C4824F6FF7F01000000B6
S214401C50BFF35F8F0138FBD17047010000093D009C
S214401C6000000000FC02402064034020CC034020DB
S214401C70000000000000000000000000000000001F
S214401C80000000000000000000000000000000000F
S214401C9000000000000000000000000000000000FF
S214401CA000000000000000000000000000000000EF
S214401CB000000000000000000000000000000000DF
S214401CC000000000000000000000000000000000CF
S214401CD000000000000000000000000000000000BF
S214401CE000000000000000000000000000000000AF
S214401CF0000000000000000000000000000000009F
S214401D00000000000000000001000000000000008D
S214401D100E33CDAB34126DE6ECDE05000B00000052
S214401D20000000000000000000000000000000006E
S214401D30000000000000000000000000000000005E
S214401D40000000000000000000000000000000004E
S214401D50000000000000000000000000000000003E
S2104020800000000000000000C8044020E3
S8044004DDDA
