S00E000053414D4537302E7372656389
S214400000E8244020DD044000D9044000D9044000E4
S214400010D9044000D9044000D90440000000000044
S214400020000000000000000000000000D90440006E
S214400030D904400000000000D9044000D904400024
S214400040D9044000D9044000D9044000D9044000F7
S214400050D9044000D9044000D9044000D9044000E7
S214400060D904400000000000010340001503400092
S21440007029034000D9044000D9044000D904400078
S2144000803D03400051034000D9044000D9044000DD
S214400090D9044000D9044000D9044000D9044000A7
S2144000A0D9044000D9044000D9044000D904400097
S2144000B0D9044000D9044000D9044000D904400087
S2144000C0D9044000D9044000D9044000D904400077
S2144000D000000000D904400000000000D9044000A1
S2144000E0D9044000D9044000D9044000D904400057
S2144000F0D9044000D9044000D9044000D904400047
S214400100D9044000D9044000D9044000D904400036
S214400110D90440000000000000000000000000007D
S214400120D9044000D9044000D9044000D904400016
S214400130D904400000000000D9044000D904400023
S21440014010B5054C237833B9044B13B10448AFF3CC
S21440015000800123237010BD3404402000000000BE
S214400160740940000C4B43B10C480D4910B5AFF331
S21440017000800C48036823B910BD0A48036833B9A9
S2144001807047094B002BF7D0BDE810401847064B88
S214400190002BF5D0184700BF00000000740940004F
S2144001A038044020740940000000000010B5104894
S2144001B0104B98473E2100200F4B98470F4CA047C6
S2144001C00028FCD00E4B98470E4A0F4B9A620F4CB5
S2144001D0A0470028FCD002200D4B984700200D4B2E
S2144001E098470D4B98470248024B984710BD00BFB2
S2144001F000A3E111B1064000010440005504400050
S21440020065044000013F182000060E40750440007B
S214400210650340009D034000A50540000AB90166FD
S214400220704741667047016370474163704721F0ED
S2144002300061B1F1405F05D1836B134214BF0120CA
S21440024000207047C36BF8E7416412F0010F0DD1F0
S214400250016612F00A0F0BD0016212F0020F09D1AC
S21440026012F0080F08D0C0F8841005E04166F0E7A9
S2144002704162F2E7C0F8801041610160704710B4F7
S214400280019C41644CB901664BB101654AB9416372
S214400290016101605DF8044B70474166F4E74165D3
S2144002A0F4E70163F4E7C06C7047806C7047000069
S2144002B02DE9F041044688460E4B984705462046B1
S2144002C00D4B9847054013D00C4C04F1600603E0F4
S2144002D0B4420DD010345DB120684045F8D1616815
S2144002E02942F5D0E3689847636825EA0305EFE7B7
S2144002F0BDE8F081A7024000AB0240005004402019
S21440030008B50A210148024B984708BD000E0E402A
S214400310B102400008B50B210148024B984708BD82
S21440032000100E40B102400008B50C210148024BB7
S214400330984708BD00120E40B102400008B5102193
S2144003400148024B984708BD00140E40B1024000D9
S21440035008B511210148024B984708BD00160E40CB
S214400360B1024000032811D0042812D002280CBF46
S2144003704FF480710021084A136B23F440730B43FB
S2144003801363936E13F0080FFBD070474FF4407121
S214400390F1E74FF40071EEE700060E40174A136B84
S2144003A023F0700318431063936E13F0080F0AD1BE
S2144003B04FF4805311498A6E12F0080F03D1013B67
S2144003C0F9D1012070470D4A136B23F0030343F025
S2144003D002031363936E13F0080F0AD14FF4805351
S2144003E006498A6E12F0080F05D1013BF9D101206B
S2144003F07047002070470020704700BF00060E4040
S214400400A0B90E48036A090289B20D4A1A400D4B3C
S2144004101343194301620246936E13F0010FFBD05B
S214400420064A116A084B0B431362704703490B6A2E
S214400430064A1A40064B13430B62704700060E40AE
S214400440FCFFC8FF0100370000003701FCFFC8FE74
S21440045002003701024B986E00F48030704700BFB0
S21440046000060E404FF00052014B9A62704700BFA4
S21440047000060E40024B986E00F00200704700BF28
S21440048000060E403F281ED81F280CD8114B9A69EC
S21440049001238340934318D0012303FA00F00D4B09
S2144004A018610020704720380A4BD3F808210123F2
S2144004B0834093430BD0012303FA00F0054BC3F867
S2144004C00001002070470120704700207047002040
S2144004D0704700BF00060E40FEE7000000B583B040
S2144004E0254B264A9A4210D0254B234A9A420CD294
S2144004F0013B9B1A23F00303043313441F4951F86E
S214400500040B42F8040B9A42F9D11E4B1E4A9A42FB
S2144005100AD2013B9B1A23F0030304331344002101
S21440052042F8041B9342FBD1184A194B23F07F0331
S2144005309360EFF31083B3FA83F35B09019372B6CB
S214400540BFF35F8F0022134B1A700199124A13684B
S21440055043F470031360BFF34F8FBFF36F8F29B11F
S21440056001220C4B1A70BFF35F8F62B60B4B984755
S2144005700B4B9847FEE700BF000040207409400040
S21440058034044020E40440203404402000ED00E0E1
S214400590000040000000402088ED00E0DD074000FD
S2144005A0910740003B4B1B6B03F00303012B1DD010
S2144005B083B1022B36D0374B1B6B03F07003702B86
S2144005C05FD0344B1A6B3449C2F302120B68D340E7
S2144005D00B607047314B5B6913F0800F14BF4FF4CC
S2144005E000424FF4FA422C4B1A60E4E7294B1B6A50
S2144005F013F0807F03D02A4A274B1A60DBE7294A4C
S214400600254B1A60234B1B6A03F07003102B05D052
S214400610202BD0D1224A204B1A60CCE7224A1E4BD0
S2144006201A60C8E71B4B1B6A13F0807F16D01C4A23
S214400630194B1A60174B1B6B03F00303022BBAD1FE
S214400640144A916A926A1448C1F30A41036801FB4E
S2144006500333D2B2B3FBF2F30360ACE7114A0E4B5E
S2144006601A600C4B1B6A03F07003102B05D0202B2E
S214400670E0D10B4A084B1A60DCE70B4A064B1A607F
S214400680D8E7054A13680949A1FB03135B081360C2
S214400690704700BF00060E400400402010180E4071
S2144006A0001BB70000093D0000127A00ABAAAAAAB8
S2144006B0124B984211D9124B984213D9114B98427B
S2144006C014D9114B984215D9104B984294BF4FF00D
S2144006D004220F4A0F4B1A6070474FF080620D4B52
S2144006E01A6070470C4A0B4B1A6070470B4A094B0E
S2144006F01A6070470A4A074B1A607047FF2C310150
S214400700FF596202FF869303FFB3C404FFE0F5057A
S21440071000050004000C0E40000100040002000426
S2144007200003000470B582B0114B98474FF4004266
S214400730104B5A600C20104DA847002400942346C6
S21440074022464FF480710D480D4EB0470A20A84708
S2144007500C4D22464FF4006128460B4B9847012229
S2144007604FF400612846094B984702B070BD00BF61
S214400770AD01400050180E408504400000120E4067
S2144007807F024000000E0E40490240001D0240001D
S21440079008B50C4B98470C4E0C4D0D4C04E04FF4EE
S2144007A0807120460B4B98474FF400624FF0205123
S2144007B03046A8470028F2D04FF480712046064BBA
S2144007C09847F1E725074000000E0E402F024000F4
S2144007D000120E402B0240002702400070B50F4E1C
S2144007E00F4D761BB61018BF002405D0013455F8BF
S2144007F0043B9847A642F9D10A4E0B4D761B00F0B3
S214400800A7F8B61018BF002406D0013455F8043BAC
S2144008109847A642F9D170BD70BD00BF5C09400044
S2144008205C094000640940005C094000024B13B17B
S214400830024800F005B87047000000004D08400030
S214400840002301461A46184600F01EB838B50A4C32
S2144008500A4D641BA4100AD004F18043013B05EB0B
S2144008608305013C55F804399847002CF9D1BDE87A
S214400870384000F077B800BF740940007009400067
S214400880704700BF704700BF2DE9F8432C4D064621
S214400890286898460F469146FFF7F2FF294B1C689A
S2144008A0D4F84831002B3ED05A681F2A1CDC02F18F
S2144008B0010E76B103EB82010124C1F88890D3F88B
S2144008C0880194402043022EC3F88801C1F808816D
S2144008D023D00232C3F804E0286843F82270FFF7BA
S2144008E0D1FF0020BDE8F883174B0BB34FF4C87018
S2144008F0AFF300800346D8B1D4F848210260002107
S21440090041600A46C4F848014FF0010EC0F888110D
S214400910C0F88C11002EDCD0CCE7D3F88C110C43F9
S214400920C3F88C41D5E704F5A673C4F84831BBE755
S2144009302868FFF7A7FF4FF0FF30BDE8F88300BFF9
S214400940300440204C0940000000000008004020D1
S214400950F8B500BFF8BC08BC9E4670472D0840005E
S21440096065014000F8B500BFF8BC08BC9E4670471D
S20840097041014000BC
S2144009740100000000093D0000000000F402402091
S2144009845C034020C4034020000000000000000038
S214400994000000000000000000000000000000000E
S2144009A400000000000000000000000000000000FE
S2144009B400000000000000000000000000000000EE
S2144009C400000000000000000000000000000000DE
S2144009D400000000000000000000000000000000CE
S2144009E400000000000000000000000000000000BE
S2144009F400000000000000000000000000000000AE
S214400A04000000000000000000000000000000009D
S214400A14000000000000000000000000000000008D
S214400A2401000000000000000E33CDAB34126DE62A
S214400A34ECDE05000B000000000000000000000093
S214400A44000000000000000000000000000000005D
S214400A54000000000000000000000000000000004D
S214400A64000000000000000000000000000000003D
S214400A74000000000000000000000000000000002D
S208400DA4C0044020E2
S8044004DDDA
